:100000000212D1E0FEA3E0FFAB07AA06EB540360A7
:100010000B7C017D90120617ED4C7012AE02AF03FF
:100020007C007D64120617ED4C60037F01227F0087
:0100300022AD
:030033000213D9DC
:03003B0002173970
:030043000217544D
:03004B0002176F2A
:1000530002178A43F102EFF5F5EEF5F67F017E0014
:070063001217A553F1FD2265
:10006B000216F90203F8E86480F8E933E83360110B
:10007B000460F0ED33EC337009E8FCE9FDEAFEEBCC
:10008B00FF220460DED3EB9FEA9EE99DE8C2E78C7A
:10009B00F0C2F795F0400CE8CCF8E9CDF9EACEFACE
:1000AB00EBCFFB1203C385D0F05804700320D5B3FC
:1000BB00E80470075002B2D502040292D5EC04603A
:1000CB00F7E4CCC0E0C398F8603B94186008400D8F
:1000DB00D0E0FB0203DAE4FBFAC9FC8028E830E449
:1000EB0006E4C9FBE4CAFCE830E305E4C9CACBFC6F
:1000FB00E854076010F8C3E913F9EA13FAEB13FBA2
:10010B00EC13FCD8F130F52FC3E49CFCEF9BFFEE16
:10011B009AFEED99FDD0E0FBEF4E4D4C701222DBB9
:10012B00030203FFEC2CFCEF33FFEE33FEED33FD4C
:10013B00ED30E7EB0203DAEF2BFFEE3AFEED39FD84
:10014B00D0E0FB50130BBB0003020402ED13FDEEDA
:10015B0013FEEF13FFEC13FC0203DAEC4D6011E816
:10016B00497017ED33EC3304600DE4FCFFFEFD2208
:10017B00E933E8330470F80203F81203C358046040
:10018B0009E4CC24815006285009020402284003BC
:10019B000203FFC0E0EB4A7044B98006D0E0FB02DB
:1001AB0003EEEF4E701CBD8008EBFFEAFEE9FD800D
:1001BB00EBE98DF0A4FEE5F002024FE9CDF9EAFE82
:1001CB00EBFFEF89F0A4FCE5F0CE89F0A42EFFE461
:1001DB0035F0CD89F0A42DFEE435F08067EF4E703D
:1001EB0005BD80D780C3EF8BF0A4ACF0EE8BF0A4F1
:1001FB002CFCE435F0F8EF8AF0A42CE5F038FCE4A5
:10020B0033CB8DF0A42CFCE5F03BF8EE8AF0A42C5C
:10021B00FCE5F038F8E433CF89F0A42CFCE5F0389A
:10022B00CF3400CE89F0A42FFFE5F03EFEE433C9B6
:10023B008DF0A42EFEE5F039CD8AF0A42FFFE5F06A
:10024B003EFEE43DFD33D0E0FB50070BBB000F023D
:10025B000402EC2CFCEF33FFEE33FEED33FD020317
:10026B00DA020402EC5D046005E859047003020332
:10027B00F81203C3580460F6EC4860F2EC7004FD0E
:10028B00FEFF22C860DB2481C85009C3986002506E
:10029B00060203FF9850CAF582E9294B4A7005AB59
:1002AB00820203EE75F0007C1A7880C3EF9BEE9A06
:1002BB00ED99400DC3EF9BFFEE9AFEED99FDE842E1
:1002CB00F0DC23ACF0D0E0FFD0E0FED0E0FDAB8261
:1002DB0020E7101BEB60BAEC2CFCEF33FFEE33FE88
:1002EB00ED33FD0203DAE803F830E705C0F075F0F3
:1002FB0000EF2FFFEE33FEED33FD40B830E7C28049
:10030B00AA74F8CC6480CCC86480C8F58204604FB2
:10031B00C3EB9FF5F0EA9E42F0E99D42F0E89C4565
:10032B00F0603C501DE5825FFFE582D313CB5BCBC6
:10033B00F42B5582FB50280ABA002409B900200877
:10034B00801DE5825BFBE582D313CF5FCFF4C31334
:10035B002F5582FF50090EBE00050DBD00010CC3C9
:10036B00EB9FF5F0EA9E42F0E99D42F0E89C45F0E8
:10037B006007CC4820E701B3EC2275F020800E75A6
:10038B00F010800575F0087D007E007F003392D55C
:10039B0030D50312079FEC334010EF33FFEE33FEE3
:1003AB00ED33FDEC33FCD5F0ED22E5F0247EA2D548
:1003BB0013CC92E7CDCEFF22E9D2E7C933E833F86D
:1003CB0092D5EDD2E7CD33EC33FC5002B2D522EC13
:1003DB0030E7100FBF000C0EBE00080DBD00040B64
:1003EB00EB6014A2D5EB13FCED92E7FD2274FFFC3E
:1003FB00FDFEFF22E480F8A2D574FF13FC7D80E4A0
:10040B0080EFF920E73624F950037907E4F424024E
:10041B00FBE582158270021583DBF6E024FB501B93
:10042B00E96014E4F0E582158270021583E004F0B4
:10043B00B40A08E4F0D9EE7401F00A22C2D522ED19
:10044B0033EC3392D5FA602AB4FF33EDC2E77BFF6E
:10045B0060067A04796FE4227A04797820D5047ADD
:10046B00047973224E614E002B494E46002D494EA6
:10047B004600E47A08F0A3DAFC7B00740722C08301
:10048B00C082ECC0E0EDC0E0EEC0E0EFC0E0EA758A
:10049B00F010A4CAABF075F04DA42BFBE435F0FCC7
:1004AB00EA2410FAEB34C5FBEC34D9FCEDC2E7FFC0
:1004BB0075F056A4F42411C5F0F434C58FF0A42ABA
:1004CB00E5F03BE43CF020E71412057FD0E0FFD0D1
:1004DB00E0FED0E0FDD0E0FC12026F8014F40412B9
:1004EB00057FD0E0FFD0E0FED0E0FDD0E0FC1201B4
:1004FB0066D082D083E0FAEDD2E7CD33EC332482A1
:10050B00FBE4C3CF33CFCE33CECD33CD33DBF37B55
:10051B000775F00A846004F0A31B0AE5F0F0A38FC3
:10052B00F0740AA4FFACF08EF0740AA42CFEACF0AD
:10053B0050010C8DF0740AA42CFDE435F0F0A3DB14
:10054B00DE7407223F8000004120000042C80000FB
:10055B00447A0000461C400047C3500049742400F5
:10056B004B1896804CBEBC205A0E1BCA6753C21C3C
:10057B00749DC5AEFB60065407601C23231205ADAA
:10058B00EB543860091205991205A8120166ECF8B4
:10059B00EDF9EEFAEFCB22EB1205A880F1543803FC
:1005AB00241C90054FFE93FC0EEE93FD0EEE930E66
:1005BB00CE93FF22BB010689828A83E0225002E799
:1005CB0022BBFE02E32289828A83E49322BB010CC5
:1005DB00E58229F582E5833AF583E0225006E92589
:1005EB0082F8E622BBFE06E92582F8E222E58229A3
:1005FB00F582E5833AF583E49322BB010689828A6F
:10060B0083F0225002F722BBFE01F322BC000BBE8B
:10061B000029EF8DF084FFADF022E4CCF875F008E3
:10062B00EF2FFFEE33FEEC33FCEE9DEC984005FC18
:10063B00EE9DFE0FD5F0E9E4CEFD22EDF8F5F0EEE0
:10064B008420D21CFEADF075F008EF2FFFED33FDCB
:10065B004007985006D5F0F222C398FD0FD5F0EA6B
:10066B0022A3F8E0C5F025F0F0E5821582700215A3
:10067B0083E0C838F0E822E88FF0A4CC8BF0A42CF0
:10068B00FCE98EF0A42CFC8AF0EDA42CFCEA8EF095
:10069B00A4CDA8F08BF0A42DCC3825F0FDE98FF07C
:1006AB00A42CCD35F0FCEB8EF0A4FEA9F0EB8FF073
:1006BB00A4CFC5F02ECD39FEE43CFCEAA42DCE35FB
:1006CB00F0FDE43CFC2275F008758200EF2FFFEE85
:1006DB0033FECD33CDCC33CCC58233C5829BED9A63
:1006EB00EC99E58298400CF582EE9BFEED9AFDECC1
:1006FB0099FC0FD5F0D6E4CEFBE4CDFAE4CCF9A807
:10070B008222B800C1B90059BA002DEC8BF084CF0E
:10071B00CECDFCE5F0CBF97818EF2FFFEE33FEEDE5
:10072B0033FDEC33FCEB33FB10D703994004EB990F
:10073B00FB0FD8E5E4F9FA227818EF2FFFEE33FE22
:10074B00ED33FDEC33FCC933C910D7059BE99A4057
:10075B0007EC9BFCE99AF90FD8E0E4C9FAE4CCFB6F
:10076B002275F010EF2FFFEE33FEED33FDCC33CCC3
:10077B00C833C810D7079BEC9AE899400AED9BFD4C
:10078B00EC9AFCE899F80FD5F0DAE4CDFBE4CCFA5F
:10079B00E4C8F922C3E49FFFE49EFEE49DFDE49CC4
:1007AB00FC22BB010DE58229F582E5833AF5830234
:1007BB0008C05007E92582F80208B4BBFE07E925FB
:1007CB0082F80208CCE58229F582E5833AF58302AB
:1007DB0008D8BB010DE58229F582E5833AF5830242
:1007EB0008315007E92582F802091EBBFE07E925EF
:1007FB0082F802092A22BB010DE58229F582E583E5
:10080B003AF5830208F55007E92582F80208E8BBA0
:10081B00FE07E92582F8020901E58229F582E583C5
:10082B003AF58302090EECF0A3EDF0A3EEF0A3EF83
:10083B00F022A8828583F0D083D08212085412084C
:10084B0054120854120854E473E493A3C583C5F0FF
:10085B00C583C8C582C8F0A3C583C5F0C583C8C509
:10086B0082C822F8E0FBA3A3E0F925F0F0E582159E
:10087B008270021583E0FA38F022EBF0A3EAF0A3C2
:10088B00E9F022D083D082F8E49370127401937054
:10089B000DA3A393F8740193F5828883E473740218
:1008AB00936860EFA3A3A380DFE6FC08E6FD08E6F0
:1008BB00FE08E6FF22E0FCA3E0FDA3E0FEA3E0FFC1
:1008CB0022E2FC08E2FD08E2FE08E2FF22E493FCD0
:1008DB00740193FD740293FE740393FF22E6FB08ED
:1008EB00E6F908E6FA08E6CBF822E0F8A3E0F9A36C
:1008FB00E0FAA3E0FB22E2FB08E2F908E2FA08E2E5
:10090B00CBF822E493F8740193F9740293FA74030D
:10091B0093FB22ECF608EDF608EEF608EFF622EC68
:10092B00F208EDF208EEF208EFF222E5082458F592
:10093B0082E43401F583E00508229001553007036A
:10094B00900158E475F00112086E0205BF2000E912
:10095B007F2ED2008018EF540F2490D43440D4FF54
:10096B0030040BEF24BFB41A0050032461FFE509D8
:10097B0060021509050CE50C7002050B30070E9093
:10098B000155E475F00112086EEF0206050216AD73
:10099B007403D2078003E4C207F5089001551208CF
:1009AB0085E4F509F50BF50CE50960077F201209C5
:1009BB007980F5750AFFC201C200C202C203C205EB
:1009CB00C206C208120945FF700D3007057F0012E1
:1009DB00098AAF0CAE0B22B4255FC2D5C204120933
:1009EB0045FF24D0B40A00501A75F00A780930D5A7
:1009FB000508B6FF0106C6A426F620D5047002D260
:100A0B000380D924CFB41A00EF5004C2E5D20402FC
:100A1B000C7CD20180C6D20080C0D20280BCD2D561
:100A2B0080BAD20580B47F201209792002077401A5
:100A3B00B5090040F1120936FF1209790209B3D248
:100A4B0008D2068095120936FB120936FA120936BE
:100A5B00F94A4B7006797A7A0D7BFF20022EE50955
:100A6B00602A7E008E827583001205D860060EEE1A
:100A7B00650A70F0C2D5EBC0E0EAC0E0E9C0E0EE79
:100A8B00120CDDD0E0F9D0E0FAD0E0FB1205BFFF8D
:100A9B0060AAEBC0E0EAC0E0E9C0E0120979D0E05F
:100AAB002401F9D0E03400FAD0E0FBE50A0460DC65
:100ABB00D50AD98087D20280A2120CBF60F7E50A53
:100ACB0070010412040DA90A600DE50A600914F502
:100ADB000A120D67EF60F3EA30E702F404C3995092
:100AEB0079EAF4250A0430E701E404F50A800D12D3
:100AFB000CBF60C1EA050A250A12040DEA900184B5
:100B0B00F030E701E4250A04D50A0420050114128C
:100B1B000CDDE4C0E0120D67900184E0601320E768
:100B2B000714F0120961802204F0D0E014C0E07FBA
:100B3B0000120961E50A6007120958150A800B308B
:100B4B000503120958D0E00209B3D0E00480C412A7
:100B5B000CBF609EE50A0412040D900184EAF0E5D7
:100B6B000A2005026001042404120CDD74FF04C08A
:100B7B00E0120D67120961E50A20050260031209F4
:100B8B0058D0E0B50AE87F4512096B900184E07FED
:100B9B002B30E7047F2DF404C0E0120979D0E07507
:100BAB00F00A84C0F0120962D0E01209620209B3A4
:100BBB00791080027908C206C2088008D2D5790A5A
:100BCB008004790AC2D5E50A047002F50AE4FAFD3D
:100BDB00FEFF120936FC7B08200113120936FD7B40
:100BEB001030000A120936FE120936FF7B20EC3357
:100BFB0082D592D55013C3E43000069FFFE49EFECE
:100C0B00E42001039DFDE49CFCE4CBF8C201EC70F5
:100C1B000CCFCECDCCE824F8F870F38017C3EF33AC
:100C2B00FFEE33FEED33FDEC33FCEB33FB9940026F
:100C3B00FB0FD8E9EB300105F8D0E0C448B201C096
:100C4B00E00AEC4D4E4F78207B0070C2EAB50A00EB
:100C5B0040BCC0E0120CDFD0F0D0E0200104C4C0D7
:100C6B00E0C4B201C0F0120962D0F0D5F0EB02097A
:100C7B00B312088E0A50530BBB580A214C0A1D4263
:100C8B000BBF4F0BC7440BC7490A36430BCD550A55
:100C9B00FA460B5A450AC4470D9A500A252D0A29C4
:100CAB002E0A4C2B0A2D230A4A200D832A09E548CC
:100CBB0000000A44E50AB4FF03750A06120936FC64
:100CCB00120936FD120936FE120936FF90017D021C
:100CDB00044A790AA2D5200314300509B91002047D
:100CEB0004B9080104A2D5200602500104200268B1
:100CFB009202B509005034C0E07F203003197F30D9
:100D0B00A20272067205500F120D36C202C206C243
:100D1B0005C2087F30800F300503E9C0E012097966
:100D2B00300503D0E0F9D0E0B509CC3005177F30A2
:100D3B00B9100C1209797F583004077F788003B9FA
:100D4B0008031209793002057F2D0209797F2020D3
:100D5B0008F87F2B2006F322920280CF7F00B40786
:100D6B0000500B247DF582E43401F583E0FF22284B
:100D7B006E756C6C2900D2011209363001F8C20174
:100D8B00780930D50108F60209E52D504349581270
:100D9B0009362403B405004001E4900D9593120924
:100DAB006A743A12096AD203750904020BBBE49008
:100DBB000001F090000EF0A3F075EFE1FF7EC27D15
:100DCB0001FC121586D2AF7BFF7A187945121527D5
:100DDB001218361216861214C01218261217F31296
:100DEB00180412181512135D900014740EF0A374EE
:100DFB0025F0E4A3F07B117D067FE77E071210B48C
:100E0B00900259E06428700AF07BFF7A1879661219
:100E1B001527900259E06429700AF07BFF7A187944
:100E2B006F121527900259E0642A700AF07BFF7A43
:100E3B00187978121527900259E0642B700AF07B11
:100E4B00FF7A187981121527D2B3900001E0700F49
:100E5B0090801A7402F0D2B290000114F0800DE46D
:100E6B00900001F090801A7402F0C2B2300991C266
:100E7B0009120F4B900240E0FEA3E0FF900002EE40
:100E8B00F0A3EFF0900242E0FD900004E4F0A3ED3C
:100E9B00F0900243E0FD900006E4F0A3EDF0900229
:100EAB0044E0FD900008E4F0A3EDF090023DE0FD7E
:100EBB0090000AE4F0A3EDF090023EE0FD90000CF0
:100ECB00E4F0A3EDF090023FE0FD90000EE4F0A300
:100EDB00EDF07BFF7A18798A900024EEF0A3EFF007
:100EEB00900004E0FFA3E0900026CFF0A3EFF0907A
:100EFB000006E0FFA3E0900028CFF0A3EFF09000F6
:100F0B0008E0FFA3E090002ACFF0A3EFF090000AD7
:100F1B00E0FFA3E090002CCFF0A3EFF090000CE0EB
:100F2B00FFA3E090002ECFF0A3EFF090000EE0FFB8
:100F3B00A3E0900030CFF0A3EFF0121527020E0BB9
:100F4B00E4900010F0A3F0A3F0A3F0AFF6EFFEAD2A
:100F5B00F57C00E42DFFEC3EFE900010F0A3EFF0CB
:100F6B00900223E06E7003A3E06F70030210979062
:100F7B000010E0FFA3E0900223CFF0A3EFF090006E
:100F8B00127407F0A374B2F0D3900011E0946D903B
:100F9B000010E09401404C900012120003EF60250A
:100FAB00D3900011E0946E900010E094014006A3E2
:100FBB00E024928016900013E004F070269000124B
:100FCB00E004F0801E900011E02493F0900010E0FC
:100FDB0034FEF0900013E004F070AD900012E004CA
:100FEB00F080A5900012E0FFA3E0900240CFF0A3A9
:100FFB00EFF0E4900012F0A3F0C3900011E0941C0A
:10100B00900010E094004070900240120003EF60DB
:10101B0029900012E07004A3E06401701DC39000DE
:10102B0011E0941D900010E09400404CA3E024E3E9
:10103B00F0900010E034FFF0802E900012E0FEA341
:10104B00E02431F58274023EF583E0FF900010E05E
:10105B00FCA3E0FDC39FEC9400401DED9FFEEC94C0
:10106B0000900010F0A3CEF0900013E004F0700697
:10107B00900012E004F08081900012A3E004900233
:10108B0042F0900010A3E004900243F0E5F4541FEB
:10109B0090023DF0A3E5F3F0A3E5F2F0E5F4C41301
:1010AB005407900244F07F0022900010EEF0A3EF63
:1010BB00F0A3EDF0A3EBF0E4900019F0A3F0121104
:1010CB00F0900010E0FEA3E0FFC394B2EE94074053
:1010DB0009D3EF9433EE940840037F01229000175D
:1010EB007407F0A374B2F0900010E0FCA3E0FD9045
:1010FB000017E0FEA3E0FFC39DEE9C5029120008F1
:10110B00EF90001A6005E0246E8003E0246DF090F0
:10111B000019E03401F0900018E004F070C9900061
:10112B0017E004F080C1900012E014F0E490001777
:10113B00F0A3F0900012E0FF900017E0FCA3E0FD9D
:10114B00C39FEC9400504C74312DF58274023CF526
:10115B0083E0FF90001AE02FF0900019E03400F0CC
:10116B00900010120003EF601A900017E07004A3B8
:10117B00E06401700E90001AE004F0700690001904
:10118B00E004F0900018E004F070A8900017E00461
:10119B00F080A0900013E024FFFFE434FFFE9000EA
:1011AB001AE02FF0900019E03EF07BFF7A1879DB04
:1011BB00E0FFA3E0900024CFF0A3EFF012152790EF
:1011CB000019E0FEA3E0FF120056900014E0FF129E
:1011DB00171A900015E0FF1217D9900016E0FF12B6
:1011EB0017BF7F002290001BEEF0A3EFF0A3EBF0F4
:1011FB00AA0590001BE0FEA3E0FF7C007D641206B5
:10120B0017900020EFF090001BE0FEA3E0FF7C00A6
:10121B007D64120617AB05900020E0D39413748005
:10122B009480400474642BFBEB1313543FFFEB2FA0
:10123B00FEE43390001EF0A3CEF090001EE0FEA360
:10124B00E0FF7C007D0712061790001EECF0A3ED6B
:10125B00F090001DE02DFFE43CFE74242AF582E49F
:10126B003402F583E07C002FFFEC3E90001EF0A3D0
:10127B00EFF0EB54037015C3EA9403748094805021
:10128B000BE024FFF090001EE034FFF090001EE016
:10129B00FEA3E0FF7C007D0712061790001EECF00A
:1012AB00A3EDF0FF1216D47BFF7A1879E890001E9D
:1012BB00E0FFA3E0900024CFF0A3EFF012152790EE
:1012CB00001EA3E0FF22787FE4F6D8FD7581210292
:1012DB001318020DB9E493A3F8E493A34003F6802B
:1012EB0001F208DFF48029E493A3F85407240CC817
:1012FB00C333C4540F4420C8834004F456800146C2
:10130B00F6DFE4800B010204081020408090165E8B
:10131B00E47E019360BCA3FF543F30E509541FFEEC
:10132B00E493A360010ECF54C025E060A840B8E45D
:10133B0093A3FAE493A3F8E493A3C8C582C8CAC5E0
:10134B0083CAF0A3C8C582C8CAC583CADFE9DEE772
:10135B0080BE90803A7403F0908039F0908080E0EA
:10136B004408F0908080E030E2F975F1FC7F067E56
:10137B00001217A57F0C12171AE4FF1217D9E4FFFE
:10138B001217BF75EC0C75EB01E4F5EAF5EDD2EE37
:10139B00C209C20A300928C2097BFF7A1879A3E572
:1013AB00F4541FFF900024E4F0A3EFF0AFF3A3E499
:1013BB00F0A3EFF0AFF2A3E4F0A3EFF01215273098
:1013CB000A0BC20A7BFF7A1879C612152722C0E0D6
:1013DB00C0F0C083C082C0D075D000C007E59A3082
:1013EB00E023E59A54FC4401F59A900185E004F062
:1013FB00E075F06484E5F0F0E02487F582E43401D5
:10140B00F583E59BF0E59A30E131E59A54FC440213
:10141B00F59A900200E0FF9001FFE06F601BA3E0E4
:10142B0004F0E075F01484E5F0F0E024EBF582E4D1
:10143B003401F583E0F59B8002C20BD007D0D0D0EE
:10144B0082D083D0F0D0E032900200E0FD9001FF1B
:10145B00E0FCC39D5006C3ED9CFE800DED2414FEF5
:10146B009001FFE0FDC3EE9DFEEED39401748094DA
:10147B008040D5C2AE9001FFE004F0E075F014841B
:10148B00E5F0F0E024EBF582E43401F583EFF02096
:10149B000B20D2AE900200E004F0E075F01484E56E
:1014AB00F0F0E024EBF582E43401F583E0F59BD218
:1014BB000B22D2AE229080207481F0908140E044C8
:1014CB0020F09080217481F0908141E04420F090D5
:1014DB0080227481F0908142E04420F0908023744C
:1014EB0081F0908143E04420F09080257422F0C27B
:1014FB00C59080267481F0908146E04420F0908066
:10150B00277481F0908147E054DFF090801A7402C9
:10151B00F0D2B290801B7405F0C2B322900021EB85
:10152B00F0A3EAF0A3E9F090004C7401F0A374006F
:10153B00F0A37424F0900021E0F9A3E0FAA3E0906B
:10154B00014FC9F0A3EAF0A3E9F090004CE0F9A336
:10155B00E0FAA3E0900152C9F0A3EAF0A3E9F07B13
:10156B00017A00794F1215E17B017A00794F12163F
:10157B002B90004CE4F0A3F0A3F022900010120883
:10158B0031E49001FFF0A3F0900185F0A3F0C20BC2
:10159B007F20FEFDFC900010E0F8A3E0F9A3E0FA39
:1015AB00A3E0FB120682A804A905AA06AB077F00DD
:1015BB007E407D387C0012070DC3E49FFF74049EB0
:1015CB00FC9080377403F0908036F0ECF59D8F9C87
:1015DB00759AD0D2AE2290014FE0FFA3E0FEA3E0BC
:1015EB00CF900158F0A3EEF0A3EFF0900152E0CBB7
:1015FB00F0A3E0CAF0A3E0C9F07F2290015BAD82BB
:10160B00AC831205BF8D828C83F0A309E970010AAC
:10161B00DFEC900152E0FBA3E0FAA3E0F902099B97
:10162B0090014FEBF0A3EAF0A3E9F090014FE0FB40
:10163B00A3E0FAA3E0F91205BF601790014FA3E4F2
:10164B0075F00112066CA9F0FA1205BFFF121453C4
:10165B0080D922410259004C0225000303060104E4
:10166B000602050003054C02311F1C1F1E1F1E1F07
:10167B001F1E1F1E1F42022300000090801B7405BB
:10168B00F0C2B375F706E4F5DDF5DE75D10575DF50
:10169B005575D30275D2AA75DB40E5DB70FC75DAA4
:1016AB00BF22EFB40A07740D1216B8740A309811E2
:1016BB00A899B8130CC2983098FDA899C298B81184
:1016CB00F63099FDC299F59922EFD3940774809463
:1016DB0080501A43F102EFC43354E0FFE5F4541F7A
:1016EB004FF5F47F0A7E001217A553F1FD22C0E0DF
:1016FB00E5EE30E20375EE04E5EE30E10575EE0242
:10170B00D209E5EE30E00575EE01D20AD0E032EFFA
:10171B00D3941774809480501443F102E5F454E091
:10172B004FF5F47F017E001217A553F1FD22C0E0A7
:10173B00C083C082E5FA30E00975FA019002597452
:10174B0028F0D082D083D0E032C0E0C083C082E5E5
:10175B00FA30E10975FA029002597429F0D082D05F
:10176B0083D0E032C0E0C083C082E5FA30E2097575
:10177B00FA04900259742AF0D082D083D0E032C0A0
:10178B00E0C083C082E5FA30E30975FA089002598C
:10179B00742BF0D082D083D0E032EF1FAA067001F9
:1017AB001E4A600FE4FDEDC3940F7480948050EAE1
:1017BB000D80F322EFD3943B74809480500F43F150
:1017CB00028FF27F017E001217A553F1FD22EFD39A
:1017DB00943B74809480500F43F1028FF37F017E12
:1017EB00001217A553F1FD2275F70175FBA1D2E984
:1017FB0043F902E4900259F02275F70275FBA2D26D
:10180B00EA43F904E4900259F02275F70375FBA340
:10181B00D2EB43F908E4900259F022E4F5F775FB9B
:10182B00A0D2E843F901900259F02290801E740275
:10183B00F090801FF0D2B7D2B6224C434420506FA9
:10184B0077657220536176696E67204D6F646520F2
:10185B0044656D6F20436F64650A004B6579313DBC
:10186B0053340A004B6579323D53330A004B65798B
:10187B00333D53320A004B6579343D53310A002511
:10188B00642F25642F25642D5B25645D2020256442
:10189B003A25643A25640A00486F7572203D20256D
:1018AB00642C4D696E757465203D2025642C536541
:1018BB00636F6E64203D2025640A00416C61726D7C
:1018CB00206576656E742068617070656E210A0004
:1018DB00616C6C20646179202025640A0077656552
:0B18EB006B20646179202025640A0056
:00000001FF
